:020000040000fa
:080000000002040000000000f2
:020000040000fa
:040008005e05000091
:020000040000fa
:04000c005e0500008d
:020000040000fa
:040010005e05000089
:020000040000fa
:040014005e05000085
:020000040000fa
:040018005e05000081
:020000040000fa
:04001c005e0500007d
:020000040000fa
:040020005e05000079
:020000040000fa
:040024005e05000075
:020000040000fa
:040028005e05000071
:020000040000fa
:04002c005e0500006d
:020000040000fa
:040030005e05000069
:020000040000fa
:04003400c8020000fe
:020000040000fa
:040038005e05000061
:020000040000fa
:04003c005e0500005d
:020000040000fa
:040040005e05000059
:020000040000fa
:040044005e05000055
:020000040000fa
:040048005e05000051
:020000040000fa
:04004c005e0500004d
:020000040000fa
:040050005e05000049
:020000040000fa
:040054005e05000045
:020000040000fa
:040058005e05000041
:020000040000fa
:04005c005e0500003d
:020000040000fa
:040060005e05000039
:020000040000fa
:040064005e05000035
:020000040000fa
:040068005e05000031
:020000040000fa
:04006c005e0500002d
:020000040000fa
:040070005e05000029
:020000040000fa
:040074009c030000e9
:020000040000fa
:040078005e05000021
:020000040000fa
:04007c005e0500001d
:020000040000fa
:040080005e05000019
:020000040000fa
:040084005e05000015
:020000040000fa
:040088005e05000011
:020000040000fa
:04008c005e0500000d
:020000040000fa
:040090005e05000009
:020000040000fa
:040094005e05000005
:020000040000fa
:04009800240300003d
:020000040000fa
:04009c005e050000fd
:020000040000fa
:0400a0005e050000f9
:020000040000fa
:0400a4005e050000f5
:020000040000fa
:0400a8005e050000f1
:020000040000fa
:0400ac005e050000ed
:020000040000fa
:0400b0005e050000e9
:020000040000fa
:0400b4005e050000e5
:020000040000fa
:0400b8005e050000e1
:020000040000fa
:0400bc005e050000dd
:020000040000fa
:0400c0005e050000d9
:020000040000fa
:0400c4005e050000d5
:020000040000fa
:0400c8005e050000d1
:020000040000fa
:0400cc005e050000cd
:020000040000fa
:0400d0005e050000c9
:020000040000fa
:0400d4005e050000c5
:020000040000fa
:0400d8005e050000c1
:020000040000fa
:0400dc005e050000bd
:020000040000fa
:0400e0005e050000b9
:020000040000fa
:0400e4005e050000b5
:020000040000fa
:0400e8005e050000b1
:020000040000fa
:0400ec005e050000ad
:020000040000fa
:0400f0005e050000a9
:020000040000fa
:0400f4005e050000a5
:020000040000fa
:0400f8005e050000a1
:020000040000fa
:0400fc005e0500009d
:020000040000fa
:040100005e05000098
:020000040000fa
:040104005e05000094
:020000040000fa
:040108005e05000090
:020000040000fa
:04010c005e0500008c
:020000040000fa
:040110005e05000088
:020000040000fa
:040114005e05000084
:020000040000fa
:040118005e05000080
:020000040000fa
:04011c005e0500007c
:020000040000fa
:040120005e05000078
:020000040000fa
:040124005e05000074
:020000040000fa
:040128005e05000070
:020000040000fa
:04012c005e0500006c
:020000040000fa
:040130005e05000068
:020000040000fa
:040134005e05000064
:020000040000fa
:040138005e05000060
:020000040000fa
:04013c005e0500005c
:020000040000fa
:040140005e05000058
:020000040000fa
:040144005e05000054
:020000040000fa
:040148005e05000050
:020000040000fa
:04014c005e0500004c
:020000040000fa
:040150005e05000048
:020000040000fa
:040154005e05000044
:020000040000fa
:040158005e05000040
:020000040000fa
:04015c005e0500003c
:020000040000fa
:040160005e05000038
:020000040000fa
:040164005e05000034
:020000040000fa
:040168005e05000030
:020000040000fa
:04016c005e0500002c
:020000040000fa
:040170005e05000028
:020000040000fa
:040174005e05000024
:020000040000fa
:040178005e05000020
:020000040000fa
:04017c005e0500001c
:020000040000fa
:040180005e05000018
:020000040000fa
:040184005e05000014
:020000040000fa
:040188005e05000010
:020000040000fa
:04018c005e0500000c
:020000040000fa
:040190005e05000008
:020000040000fa
:040194005e05000004
:020000040000fa
:040198005e05000000
:020000040000fa
:04019c005e050000fc
:020000040000fa
:040208005e0500008f
:020000040000fa
:04020c005e0500008b
:020000040000fa
:040210005e05000087
:020000040000fa
:040214005e05000083
:020000040000fa
:040218005e0500007f
:020000040000fa
:04021c005e0500007b
:020000040000fa
:040220005e05000077
:020000040000fa
:040224005e05000073
:020000040000fa
:040228005e0500006f
:020000040000fa
:04022c005e0500006b
:020000040000fa
:040230005e05000067
:020000040000fa
:040234005e05000063
:020000040000fa
:040238005e0500005f
:020000040000fa
:04023c005e0500005b
:020000040000fa
:040240005e05000057
:020000040000fa
:040244005e05000053
:020000040000fa
:040248005e0500004f
:020000040000fa
:04024c005e0500004b
:020000040000fa
:040250005e05000047
:020000040000fa
:040254005e05000043
:020000040000fa
:040258005e0500003f
:020000040000fa
:04025c005e0500003b
:020000040000fa
:040260005e05000037
:020000040000fa
:040264005e05000033
:020000040000fa
:040268005e0500002f
:020000040000fa
:04026c005e0500002b
:020000040000fa
:040270005e05000027
:020000040000fa
:040274005e05000023
:020000040000fa
:040278005e0500001f
:020000040000fa
:04027c005e0500001b
:020000040000fa
:040280005e05000017
:020000040000fa
:040284005e05000013
:020000040000fa
:040288005e0500000f
:020000040000fa
:04028c005e0500000b
:020000040000fa
:040290005e05000007
:020000040000fa
:040294005e05000003
:020000040000fa
:040298005e050000ff
:020000040000fa
:04029c005e050000fb
:020000040000fa
:0402a0005e050000f7
:020000040000fa
:0402a4005e050000f3
:020000040000fa
:0402a8005e050000ef
:020000040000fa
:0402ac005e050000eb
:020000040000fa
:0402b0005e050000e7
:020000040000fa
:0402b4005e050000e3
:020000040000fa
:0402b8005e050000df
:020000040000fa
:0402bc005e050000db
:020000040000fa
:0402c0005e050000d7
:020000040000fa
:0402c4005e050000d3
:020000040000fa
:0402c8005e050000cf
:020000040000fa
:0402cc005e050000cb
:020000040000fa
:0402d0005e050000c7
:020000040000fa
:0402d4005e050000c3
:020000040000fa
:0402d8005e050000bf
:020000040000fa
:0402dc005e050000bb
:020000040000fa
:0402e0005e050000b7
:020000040000fa
:0402e4005e050000b3
:020000040000fa
:0402e8005e050000af
:020000040000fa
:0402ec005e050000ab
:020000040000fa
:0402f0005e050000a7
:020000040000fa
:0402f4005e050000a3
:020000040000fa
:0402f8005e0500009f
:020000040000fa
:0402fc005e0500009b
:020000040000fa
:040300005e05000096
:020000040000fa
:040304005e05000092
:020000040000fa
:040308005e0500008e
:020000040000fa
:04030c005e0500008a
:020000040000fa
:040310005e05000086
:020000040000fa
:040314005e05000082
:020000040000fa
:040318005e0500007e
:020000040000fa
:04031c005e0500007a
:020000040000fa
:040320005e05000076
:020000040000fa
:040324005e05000072
:020000040000fa
:040328005e0500006e
:020000040000fa
:04032c005e0500006a
:020000040000fa
:040330005e05000066
:020000040000fa
:040334005e05000062
:020000040000fa
:040338005e0500005e
:020000040000fa
:04033c005e0500005a
:020000040000fa
:040340005e05000056
:020000040000fa
:040344005e05000052
:020000040000fa
:040348005e0500004e
:020000040000fa
:04034c005e0500004a
:020000040000fa
:040350005e05000046
:020000040000fa
:040354005e05000042
:020000040000fa
:040358005e0500003e
:020000040000fa
:04035c005e0500003a
:020000040000fa
:040360005e05000036
:020000040000fa
:040364005e05000032
:020000040000fa
:040368005e0500002e
:020000040000fa
:04036c005e0500002a
:020000040000fa
:040370005e05000026
:020000040000fa
:040374005e05000022
:020000040000fa
:040378005e0500001e
:020000040000fa
:04037c005e0500001a
:020000040000fa
:040380005e05000016
:020000040000fa
:040384005e05000012
:020000040000fa
:040388005e0500000e
:020000040000fa
:04038c005e0500000a
:020000040000fa
:040390005e05000006
:020000040000fa
:040394005e05000002
:020000040000fa
:040398005e050000fe
:020000040000fa
:04039c005e050000fa
:020000040000fa
:100400008f8220000e7f24000e0188000000000073
:10041000000020000000e000020032000001200087
:100420002002880014000700a60107000000e00079
:1004300003003a0060b920000100200002003700ec
:100440000000200001002000810f70000100320038
:1004500014000700000020000000e000020032004d
:100460000000020000000000b804020000000000cc
:100470000040da000000fe004440a90060022000b5
:100480000000e0000300320000002000a00188000e
:100490004440a800000006008a1f78008b1f7800e7
:1004a0000000060091018800800478000000eb0045
:1004b0001a003700e284440032a0b4009905ba0063
:1004c000e284440032a0b4009906ba00e2844400f9
:1004d00032a0b4000006eb00476fde00fd07b2005b
:1004e000636ce10003003a00ebff07000000eb0043
:1004f0000a003700606ce10004003a00005deb0088
:100500008b05e900fdff3e00040037006168e10053
:10051000010032000086eb000b00070019c7ba008b
:100520001905ba000e04e00003003a000a00e000da
:10053000e0ff3a0000000600fe07b2009e018800be
:100540008a047800f5ff3700395dba008b05e900b1
:100550000c003200295dba008b05e900080032006a
:100560000c00e00003003a00e284440032a0b40032
:10057000f5ff370019ddba008b05e900faff3a00f4
:100580008904e800e184440032a0b40000000600c1
:100590003600f800809fbe00829fbe00849fbe0090
:1005a000869fbe003400f80000002000a0018800f3
:1005b0000000fa00704080000000e80070408800f1
:1005c0007140800080022000808f500015003a00aa
:1005d000304180008006b000304188003141800009
:1005e000c0df2000808f500004003a00c09e200031
:1005f00030418800008f2800500307003041800000
:10060000b00c8800b00020002d0407008040880056
:10061000804080005c03070000c2b3002103070094
:100620000e28ef008460a9000080fa003400f90071
:100630004f03be004f02be004f01be004f00be0080
:100640003600f900004006003600f800809fbe002a
:10065000829fbe00849fbe00869fbe003400f800cb
:1006600000002000a00188000000fa00f040800097
:100670000000e800f0408800f0408000e50f5000e6
:1006800024003a0090408000a1408000b0408800e3
:10069000c1408800204080008000eb00f801070086
:1006a000f2772300d3f523004a0207009040880028
:1006b000a140880094408000a5408000b0408000a8
:1006c000c14080000001be000400be00fe00070023
:1006d000d0408800e1408800d0408000e1408000a8
:1006e00002002000031224003a02070000418800a3
:1006f000114188000041800011418000c2010700c3
:10070000000078002003070000c2b300e5020700e4
:100710001e28ef008780a9000080fa003400f9004d
:100720004f03be004f02be004f01be004f00be008f
:100730003600f900004006003600f800809fbe0039
:10074000829fbe00849fbe00869fbe000200fa000a
:10075000604080000000e800604088009017800042
:100760004600de00670f60001e007800e30f5000b7
:100770000e003200e30f500005003c00e10f500076
:1007800019003200e20f50000b0032001900370050
:10079000e50f500011003200e50f50000c0035004d
:1007a000e60f500007003200120037001000200052
:1007b000004088001500370020002000004088001d
:1007c0001200370030002000004088000f00370082
:1007d00040002000004088000c003700500020003e
:1007e00000408800090037006000200000408800b9
:1007f00006003700b08f2800d002070000c2b30007
:10080000a80207000028ef00000000000040800060
:10081000e10f500003003a0010408000e60f500046
:100820000600320000408000e60f500015003a003c
:1008300010408000e10f500012003a00014080009b
:1008400010408000808f5000030034002040800062
:100850000000e80020408800014080001040800037
:10086000808f50001a003d0060408000e20f500071
:1008700016003400204080000000e900204088007d
:10088000130037000140800010408000808f50002e
:100890000600340060408000e20f50000300340086
:1008a000204080000000e9002040880001408000d6
:1008b00010408000808f500005003d0020408000e7
:1008c0000000e80020408800010037000000000020
:1008d0008660a9000080fa004f03be004f02be00f0
:1008e0004f01be004f00be003600f9000040060078
:1008f0000400fa00000f7800110798001e0078002d
:10090000cf80de005b010700f2772300d3f52300e0
:10091000cb0007001b010700000078002041880081
:10092000204080008000eb0055010700f277230093
:10093000d3f52300a701070090408800a14088005c
:10094000204180008000780020408000808f50008f
:10095000030039001e009000000d880002003700df
:10096000c0bc2000000d88000080fa0000000600d6
:100970001000fa000080eb0060198800213580002b
:1009800000fc2f0000806000c001b300203588000b
:100990009136800000fc2f00008060003000b30022
:1009a00090368800f102a8006d40a9005540a800cb
:1009b0006140a800f0e2a8006d20a9005520a80021
:1009c0006120a800f0c2a8006d00a9005500a80091
:1009d0006100a8009660a8008660a900f122a90025
:1009e000120207008d020700b80207001a03070071
:1009f0000000eb00300798000000eb004007980073
:100a00000000eb00500798000000eb006007980022
:100a10000000eb00000f78004006200070079800ef
:100a20006000b80010079800210798000000eb0054
:100a3000000f78000c003700b000200020030700f2
:100a4000300798003e009000cf80de001e0190002d
:100a5000ae0190000200400083804800100798001b
:100a6000210798001e0fe8007e0090009e0078008d
:100a7000808f5000f0ff35001e009000ae00900007
:100a80004206200003002000af0007001007980076
:100a9000210798001e0090003b02070000c2b3002f
:100aa0000002070000e0230091042000110307006a
:100ab0000000eb00000f7800dcff37000040da0098
:100ac0000000fe000000050003f0a200889fbe00a9
:100ad0008a9fbe008c1f7800260107002d0133007d
:100ae0006450e1004f0032006420e1005200320007
:100af00003826c0007003b000905d0000306d0000c
:100b0000820f54000c065d00020039000200320022
:100b100089017800030678008582550004003d00b5
:100b20000003fd008103fd008502ea008b85420081
:100b3000840f720002003b0060001000e08018008b
:100b40006011b8000005eb007a28e1000a003900c6
:100b500006007800c75ddd00f707b20087807500ea
:100b60002d003700828171000a0178006105600064
:100b70008180d1000080d3008502e900f9ff3b00ad
:100b8000060440008784480002003b006004140013
:100b9000e0841c000988a300070032008a817100ec
:100ba00082817100610164008904d1000884d3004e
:100bb0008b05e800170037000978a30013003a00fe
:100bc0000b00e000130034008b05e900080444002a
:100bd00089844c000a4474000978a3000d003a008f
:100be0000b00e000070034008b05e9000804440016
:100bf00089844c0001003a000b0020000978a30012
:100c0000f7ff32000001eb00020037008281710023
:100c10000a0178009c0007000cf0a70001f0a0007a
:100c2000e50037006420e10002003a00838f6c0089
:100c3000e50033000801be000200be00de00370000
:100c4000889fbe008a9fbe008c1f7800c9000700e5
:100c5000d000330003866c006450e1002e003200a7
:100c60006420e100330032006150e1002f003200c7
:100c70006120e1003100320085855500eb07b000ae
:100c80000900200008042000050037000804440083
:100c900089844c000a0031000603430087834b001f
:100ca0000001530081815b00f8ff33000203be00a6
:100cb0000800a0000804440089844c00f6ff3900b5
:100cc000c639dd00830173000100320013002000eb
:100cd0008904d1000884d3000998a30005003200dc
:100ce0000800a7000300a0008904d1000884d300f5
:100cf0008b05e8008904d1000884d3000001eb00d3
:100d00000281d2006000070001f0a1000cf0a700f2
:100d100001f0a000a80037006420e100aa00320022
:100d20000801be000200be00f7ff37006120e100ad
:100d3000a50032006000b800f3ff3700000020007b
:100d400001f82700f0ff3700839f68000100e000f2
:100d500002003d0060001000e08018000300e00089
:100d600002003d0060011100e0811900cd00070084
:100d70004f00e00002003b0060001000e08018001f
:100d8000000006000001be00650007000470a70017
:100d900003f0a1006509b100160032000d00350016
:100da0006828e10006003500f0ff2f00f1ff270062
:100db0000300e00013003b000100280000000500d4
:100dc00000004000818048008502e900fcff3a00f5
:100dd00008003700f88f420002003c008000eb0062
:100de000000005008100d1000080d3008502e800ea
:100df000fcff3a000300e00002003b00600010002e
:100e0000e0801800000006000001be00440007005a
:100e10000470a70003f0a10003f8a30013003a0038
:100e20006509b10010003200090035006928e100b1
:100e3000020035000100280000000500000040000d
:100e4000818048008502e900fcff3a0000000600ae
:100e5000f88f4200050035008100d1000080d300ea
:100e60008502e800fcff3a00000006008000eb006d
:100e7000000005004f89de008201780099003700ec
:100e80006011b800a7003700810020006180550084
:100e90000b003d000b00200061fe2f000100e1006f
:100ea0001d00340082817100610164008904d10059
:100eb0000884d3000000e800faff3a007100200027
:100ec000610064000300700002006000090032004d
:100ed00061044400e0844c000988a500050032004c
:100ee0008b05e8006808e10002003a008904d1009f
:100ef0000884d300f20f20000258e10005003d00f5
:100f0000c75ddd00f907b200898075000800780030
:100f1000000006000bf827008b0078000000050099
:100f2000c70ade00f107b200f50fb2000800320078
:100f3000e1cf4200020032000170a0002400050051
:100f4000810f700001003200040805004400050014
:100f5000810f700002003a00140005008502e900cc
:100f60000000400081c04800fcff3b000170a00071
:100f7000240005000004be00e9ff07000003be00d6
:100f80000405be000200be00e5ff0700844f7500a7
:100f9000000006000200be006450e10005003600bb
:100fa0006420e100020036000968a30001003a0055
:100fb0000800be000160a0004f0678004f05be008b
:100fc0004f04be0000000600f0ff2f00f1ff2700d5
:100fd000f9ff3700889fbe008a9fbe008c1f7800f3
:100fe000e4ff0700ebff330003866c006450e10070
:100ff000240032006420e100270032006150e1004b
:10100000220032006120e100210032008b85420085
:10101000eb07b1000134b800003ab8000804420000
:1010200089844a00013ab8000030b8008880400046
:1010300009014a000400330000004000818048009c
:10104000020149008b05e900c909dd008301700038
:101050000100320013002000c814de004814dd0037
:101060004709de001200b200c808de0008847000e4
:1010700085ff070001f0a1000cf0a70001f0a0001f
:10108000cdff37006120e100cfff32000801be0034
:101090000200be00f7ff37006150e100fcff3a009c
:1010a000c9ff37006022b800060220000000d0000f
:1010b0008180d2000482d2008582d2000000a0008c
:1010c0000202520083825a000300310002024200f1
:1010d00083824a000000a1000603e900f3ff3a0002
:1010e00000000600881f7800030478000300e00079
:1010f00007003d0060001000e0801800600119004a
:10110000e081190002003b0001f02d0003003700d0
:101110000400070008f0a70001f0a0004f047800c9
:1011200000000600889fbe008a9fbe0000827000fb
:101130000402710004827100260032000004be0027
:101140000200be006011b8006b092000950220006b
:101150000182cf000a0039000541b1000082cf00b2
:10116000070039000541b1000982cf0004003900b1
:101170000541b1000882cf00010039000541b100ee
:1011800005425200120032000a003b0082817100c9
:10119000610164008100d1000080d3008984d30004
:1011a0000884d3008b05e8000442e800f7ff3a000a
:1011b000070037000804440089844c000000480000
:1011c000818048008b05e9000442e900f9ff3a00fc
:1011d0002dff07004f05be004f04be0000000600b3
:020000040000fa
:1011e00020200000202000002020000020200000ff
:1011f0002020000000450000727200006f720000a5
:10120000206f000072200000537400006172000023
:10121000742f0000537400006f70000020700000f5
:0c1220006f6900006e7400000000000008
:020000040000fa
:10122c000000fa0021e2a9002022ef002002200099
:10123c00401188002062a8002222ef0021e2a800c1
:10124c002342a8009560a90041058000f0ff28000a
:10125c000080600000c0a000400588008560a900e7
:10126c000080fa00000006000200fa0000000000f6
:10127c0010118000610060000000e000fcff3200f3
:10128c0030118000004f78008560a9001e40780066
:10129c000080fa00000006000200fa00004f7800ff
:1012ac000000000011118000002020000080600070
:1012bc000000e000fbff3a001e00fb00201188003c
:1012cc000080fa00000006000400fa0010079800e5
:1012dc001e0090004880de00004f78001e00900039
:1012ec001047980000000000111180000010200031
:1012fc00008060000000e000fbff32001e00fb00dd
:10130c002011880000000000111180000010200046
:10131c00008060000000e000fbff32001e409000e7
:10132c000000fb00201188000080fa00000006007d
:10133c000400fa0010079800020037001e407800e5
:10134c00d5ff07001e00900010407800004f780079
:10135c001e80fb000000ea004f00de000040780019
:10136c009e0090008100e800110798000004e00046
:10137c00f2ff3a000080fa00000006000e00fa00ae
:10138c00600798000000eb00000f7800ee00900062
:10139c00a000200000017800110009008280d80014
:1013ac008000fd00004078000043b00080407800d1
:1013bc000e80e8001e004000014878001e0fe80077
:1013cc00ee009000a0002000000178001100090040
:1013dc008280d800600798006e0090000000e0004a
:1013ec00eaff3a00050037001e0fe9000e80e80006
:1013fc001e00400010407800a7ff07001e00780078
:10140c000000e000f8ff3a000080fa00000006003f
:10141c000000fa000621ef0000a4260060088800f6
:10142c0081088000f0fc2f00008060000040a000cc
:10143c008008880011e1a800213a8000f08f2f006d
:10144c0000806000203a880001368000f00f2c00ec
:10145c0080806000002021000100700000368800b0
:10146c0000be2000b00c880060088000a00c880032
:10147c00910c800000fe2f0000806000c000b300c3
:10148c00900c880092e1a900810c8000f03f2e00a6
:10149c0000806000800c880094e0a9009440a900b2
:1014ac009560a900810c800080ff2f0000806000f7
:1014bc006000b300800c88000080fa000000060079
:1014cc000000fa000621ef0000a426006008880046
:1014dc0081088000f0fc2f00008060000040a0001c
:1014ec008008880011e1a800213a8000f08f2f00bd
:1014fc0000806000203a880061368000f00f2c00dc
:10150c00808060000030210001007000603688008f
:10151c0060088000f00c8800c0bc2000000d880022
:10152c00e10c800000fe2f0000806000c000b300c2
:10153c00e00c88009ce1a900d10c8000f03f2e004b
:10154c0000806000d00c880094e0a9009440a900b1
:10155c009560a900d10c800080ff2f0000806000f6
:10156c006000b300d00c88000080fa000000060078
:10157c000000fa000421ef000021ef002108800098
:10158c00f0fc2f00008060000040a00020088800c4
:10159c000421a90004c1a9000441a90000352c00b4
:1015ac001008880021058000f0ff280000806000f2
:1015bc0000c0a000200588008460a9009460a800e9
:1015cc0005e1a8000080fa00000006000000fa0007
:1015dc001221ef000a21ef0091088000f0fc2f008f
:1015ec0000806000900888001221a90012c1a90097
:1015fc000080eb00700888008500a9009500a90008
:10160c0013e1a8000080fa00000006000000fa00b8
:10161c002021ef001821ef0001098000f0fc2f00c1
:10162c0000806000000988002021a90020c1a900c9
:10163c0000c42900e00888008780a9009780a800d2
:10164c0021e1a8000080fa00000006000000fa006a
:10165c000080eb00601988002d63a9002d83a90080
:10166c0011198000f0ff2100008060001019880023
:10167c002463ef003023ef002119800000f02100db
:10168c00010070002019880001198000000e200054
:10169c00010070000019880001198000f0cf2f00a4
:1016ac00008060000019880021e3a8000080fa0087
:1016bc00000006000200fa00000f78001e007800ff
:1016cc00401988002023a8000000000000198000a9
:1016dc00610060000000e000fcff32000018800098
:0816ec000080fa000000060076
:020000040000fa
:1016f400f03fb1000180b10006003500ee0309009f
:1017040000000000403fb1000180b100fbff3d003c
:101714001000b000203fb000020035000080090036
:081724000000000000000600b7
:020000040000fa
:10172c000008000026000000000000002608000051
:10173c000200000002000000ec09000000000000a4
:020000040000fa
:020000040005f5
:0457f400ffff0000b3
:020000040000fa
:020000040005f5
:0457f8009ef200001d
:020000040000fa
:020000040005f5
:0457fc007f7e0000ac
:00000001FF
